{
  "_format": "hh-sol-artifact-1",
  "contractName": "MockERC20",
  "sourceName": "contracts/test/MockERC20.sol",
  "abi": [
    {
      "inputs": [
        {
          "internalType": "address",
          "name": "",
          "type": "address"
        },
        {
          "internalType": "uint256",
          "name": "",
          "type": "uint256"
        }
      ],
      "name": "approve",
      "outputs": [
        {
          "internalType": "bool",
          "name": "",
          "type": "bool"
        }
      ],
      "stateMutability": "pure",
      "type": "function"
    }
  ],
  "bytecode": "0x6080604052348015600f57600080fd5b506101b18061001f6000396000f3fe608060405234801561001057600080fd5b506004361061002b5760003560e01c8063095ea7b314610030575b600080fd5b61004a60048036038101906100459190610105565b610060565b6040516100579190610160565b60405180910390f35b60006001905092915050565b600080fd5b600073ffffffffffffffffffffffffffffffffffffffff82169050919050565b600061009c82610071565b9050919050565b6100ac81610091565b81146100b757600080fd5b50565b6000813590506100c9816100a3565b92915050565b6000819050919050565b6100e2816100cf565b81146100ed57600080fd5b50565b6000813590506100ff816100d9565b92915050565b6000806040838503121561011c5761011b61006c565b5b600061012a858286016100ba565b925050602061013b858286016100f0565b9150509250929050565b60008115159050919050565b61015a81610145565b82525050565b60006020820190506101756000830184610151565b9291505056fea26469706673582212201e2ce24ddb09bc0beb1781f3b359eaf2be132bfc4035ece74180b3bf87795d2b64736f6c634300081c0033",
  "linkReferences": {},
  "deployedLinkReferences": {}
}