{
  "_format": "hh-sol-artifact-1",
  "contractName": "SQLYVestingVault",
  "sourceName": "contracts/SQLYVestingVault.sol",
  "abi": [
    {
      "inputs": [
        {
          "internalType": "contract IERC20",
          "name": "_token",
          "type": "address"
        }
      ],
      "stateMutability": "nonpayable",
      "type": "constructor"
    },
    {
      "anonymous": false,
      "inputs": [
        {
          "indexed": true,
          "internalType": "address",
          "name": "previousOwner",
          "type": "address"
        },
        {
          "indexed": true,
          "internalType": "address",
          "name": "newOwner",
          "type": "address"
        }
      ],
      "name": "OwnershipTransferred",
      "type": "event"
    },
    {
      "anonymous": false,
      "inputs": [
        {
          "indexed": false,
          "internalType": "address",
          "name": "beneficiary",
          "type": "address"
        },
        {
          "indexed": false,
          "internalType": "uint256",
          "name": "amount",
          "type": "uint256"
        }
      ],
      "name": "TokensReleased",
      "type": "event"
    },
    {
      "anonymous": false,
      "inputs": [
        {
          "indexed": false,
          "internalType": "address",
          "name": "beneficiary",
          "type": "address"
        },
        {
          "indexed": false,
          "internalType": "uint256",
          "name": "total",
          "type": "uint256"
        },
        {
          "indexed": false,
          "internalType": "uint256",
          "name": "start",
          "type": "uint256"
        }
      ],
      "name": "VestingCreated",
      "type": "event"
    },
    {
      "inputs": [
        {
          "internalType": "uint256",
          "name": "",
          "type": "uint256"
        }
      ],
      "name": "beneficiaries",
      "outputs": [
        {
          "internalType": "address",
          "name": "",
          "type": "address"
        }
      ],
      "stateMutability": "view",
      "type": "function"
    },
    {
      "inputs": [
        {
          "internalType": "address",
          "name": "beneficiary",
          "type": "address"
        },
        {
          "internalType": "uint256",
          "name": "totalAmount",
          "type": "uint256"
        },
        {
          "internalType": "uint256",
          "name": "startTime",
          "type": "uint256"
        },
        {
          "internalType": "uint256",
          "name": "cliffDuration",
          "type": "uint256"
        },
        {
          "internalType": "uint256",
          "name": "vestingDuration",
          "type": "uint256"
        }
      ],
      "name": "createVesting",
      "outputs": [],
      "stateMutability": "nonpayable",
      "type": "function"
    },
    {
      "inputs": [],
      "name": "getAllVestingSchedules",
      "outputs": [
        {
          "internalType": "address[]",
          "name": "",
          "type": "address[]"
        },
        {
          "components": [
            {
              "internalType": "uint256",
              "name": "total",
              "type": "uint256"
            },
            {
              "internalType": "uint256",
              "name": "released",
              "type": "uint256"
            },
            {
              "internalType": "uint256",
              "name": "start",
              "type": "uint256"
            },
            {
              "internalType": "uint256",
              "name": "cliff",
              "type": "uint256"
            },
            {
              "internalType": "uint256",
              "name": "duration",
              "type": "uint256"
            }
          ],
          "internalType": "struct SQLYVestingVault.Vesting[]",
          "name": "",
          "type": "tuple[]"
        }
      ],
      "stateMutability": "view",
      "type": "function"
    },
    {
      "inputs": [
        {
          "internalType": "address",
          "name": "user",
          "type": "address"
        }
      ],
      "name": "getReleasableAmount",
      "outputs": [
        {
          "internalType": "uint256",
          "name": "",
          "type": "uint256"
        }
      ],
      "stateMutability": "view",
      "type": "function"
    },
    {
      "inputs": [],
      "name": "owner",
      "outputs": [
        {
          "internalType": "address",
          "name": "",
          "type": "address"
        }
      ],
      "stateMutability": "view",
      "type": "function"
    },
    {
      "inputs": [],
      "name": "release",
      "outputs": [],
      "stateMutability": "nonpayable",
      "type": "function"
    },
    {
      "inputs": [],
      "name": "renounceOwnership",
      "outputs": [],
      "stateMutability": "nonpayable",
      "type": "function"
    },
    {
      "inputs": [],
      "name": "token",
      "outputs": [
        {
          "internalType": "contract IERC20",
          "name": "",
          "type": "address"
        }
      ],
      "stateMutability": "view",
      "type": "function"
    },
    {
      "inputs": [
        {
          "internalType": "address",
          "name": "newOwner",
          "type": "address"
        }
      ],
      "name": "transferOwnership",
      "outputs": [],
      "stateMutability": "nonpayable",
      "type": "function"
    },
    {
      "inputs": [
        {
          "internalType": "address",
          "name": "",
          "type": "address"
        }
      ],
      "name": "vestingSchedules",
      "outputs": [
        {
          "internalType": "uint256",
          "name": "total",
          "type": "uint256"
        },
        {
          "internalType": "uint256",
          "name": "released",
          "type": "uint256"
        },
        {
          "internalType": "uint256",
          "name": "start",
          "type": "uint256"
        },
        {
          "internalType": "uint256",
          "name": "cliff",
          "type": "uint256"
        },
        {
          "internalType": "uint256",
          "name": "duration",
          "type": "uint256"
        }
      ],
      "stateMutability": "view",
      "type": "function"
    }
  ],
  "bytecode": "0x60a060405234801561001057600080fd5b50604051611758380380611758833981810160405281019061003291906101c9565b61004e61004361008860201b60201c565b61009060201b60201c565b8073ffffffffffffffffffffffffffffffffffffffff1660808173ffffffffffffffffffffffffffffffffffffffff1681525050506101f6565b600033905090565b60008060009054906101000a900473ffffffffffffffffffffffffffffffffffffffff169050816000806101000a81548173ffffffffffffffffffffffffffffffffffffffff021916908373ffffffffffffffffffffffffffffffffffffffff1602179055508173ffffffffffffffffffffffffffffffffffffffff168173ffffffffffffffffffffffffffffffffffffffff167f8be0079c531659141344cd1fd0a4f28419497f9722a3daafe3b4186f6b6457e060405160405180910390a35050565b600080fd5b600073ffffffffffffffffffffffffffffffffffffffff82169050919050565b600061018482610159565b9050919050565b600061019682610179565b9050919050565b6101a68161018b565b81146101b157600080fd5b50565b6000815190506101c38161019d565b92915050565b6000602082840312156101df576101de610154565b5b60006101ed848285016101b4565b91505092915050565b608051611540610218600039600081816103e1015261096d01526115406000f3fe608060405234801561001057600080fd5b506004361061009e5760003560e01c8063eab23abe11610066578063eab23abe14610124578063efeb5e5814610140578063f2fde38b14610170578063fc0c546a1461018c578063fdb20ccb146101aa5761009e565b80632afd1a7d146100a3578063715018a6146100d357806386d1a69f146100dd5780638da5cb5b146100e7578063b195880b14610105575b600080fd5b6100bd60048036038101906100b89190610c14565b6101de565b6040516100ca9190610c5a565b60405180910390f35b6100db610285565b005b6100e5610299565b005b6100ef6104bc565b6040516100fc9190610c84565b60405180910390f35b61010d6104e5565b60405161011b929190610e83565b60405180910390f35b61013e60048036038101906101399190610ee6565b6106d0565b005b61015a60048036038101906101559190610f61565b6108a9565b6040516101679190610c84565b60405180910390f35b61018a60048036038101906101859190610c14565b6108e8565b005b61019461096b565b6040516101a19190610fed565b60405180910390f35b6101c460048036038101906101bf9190610c14565b61098f565b6040516101d5959493929190611008565b60405180910390f35b600080600160008473ffffffffffffffffffffffffffffffffffffffff1673ffffffffffffffffffffffffffffffffffffffff1681526020019081526020016000206040518060a0016040529081600082015481526020016001820154815260200160028201548152602001600382015481526020016004820154815250509050600061026a826109c5565b905081602001518161027c919061108a565b92505050919050565b61028d610a38565b6102976000610ab6565b565b6000600160003373ffffffffffffffffffffffffffffffffffffffff1673ffffffffffffffffffffffffffffffffffffffff16815260200190815260200160002090508060030154421015610323576040517f08c379a000000000000000000000000000000000000000000000000000000000815260040161031a9061111b565b60405180910390fd5b600061036b826040518060a0016040529081600082015481526020016001820154815260200160028201548152602001600382015481526020016004820154815250506109c5565b9050600082600101548261037f919061108a565b9050600081116103c4576040517f08c379a00000000000000000000000000000000000000000000000000000000081526004016103bb90611187565b60405180910390fd5b808360010160008282546103d891906111a7565b925050819055507f000000000000000000000000000000000000000000000000000000000000000073ffffffffffffffffffffffffffffffffffffffff1663a9059cbb33836040518363ffffffff1660e01b815260040161043a9291906111db565b6020604051808303816000875af1158015610459573d6000803e3d6000fd5b505050506040513d601f19601f8201168201806040525081019061047d919061123c565b507fc7798891864187665ac6dd119286e44ec13f014527aeeb2b8eb3fd413df9317933826040516104af9291906111db565b60405180910390a1505050565b60008060009054906101000a900473ffffffffffffffffffffffffffffffffffffffff16905090565b6060806000600280549050905060008167ffffffffffffffff81111561050e5761050d611269565b5b60405190808252806020026020018201604052801561054757816020015b610534610b82565b81526020019060019003908161052c5790505b50905060005b8281101561063a57600160006002838154811061056d5761056c611298565b5b9060005260206000200160009054906101000a900473ffffffffffffffffffffffffffffffffffffffff1673ffffffffffffffffffffffffffffffffffffffff1673ffffffffffffffffffffffffffffffffffffffff1681526020019081526020016000206040518060a00160405290816000820154815260200160018201548152602001600282015481526020016003820154815260200160048201548152505082828151811061062257610621611298565b5b6020026020010181905250808060010191505061054d565b50600281818054806020026020016040519081016040528092919081815260200182805480156106bf57602002820191906000526020600020905b8160009054906101000a900473ffffffffffffffffffffffffffffffffffffffff1673ffffffffffffffffffffffffffffffffffffffff1681526020019060010190808311610675575b505050505091509350935050509091565b6106d8610a38565b6000600160008773ffffffffffffffffffffffffffffffffffffffff1673ffffffffffffffffffffffffffffffffffffffff168152602001908152602001600020600001541461075d576040517f08c379a000000000000000000000000000000000000000000000000000000000815260040161075490611313565b60405180910390fd5b6040518060a0016040528085815260200160008152602001848152602001838561078791906111a7565b815260200182815250600160008773ffffffffffffffffffffffffffffffffffffffff1673ffffffffffffffffffffffffffffffffffffffff16815260200190815260200160002060008201518160000155602082015181600101556040820151816002015560608201518160030155608082015181600401559050506002859080600181540180825580915050600190039060005260206000200160009091909190916101000a81548173ffffffffffffffffffffffffffffffffffffffff021916908373ffffffffffffffffffffffffffffffffffffffff1602179055507f9ade76f4385de306666dfb21a52b27d52db0fde8ad0f515fa261f532cac60d2185858560405161089a93929190611333565b60405180910390a15050505050565b600281815481106108b957600080fd5b906000526020600020016000915054906101000a900473ffffffffffffffffffffffffffffffffffffffff1681565b6108f0610a38565b600073ffffffffffffffffffffffffffffffffffffffff168173ffffffffffffffffffffffffffffffffffffffff160361095f576040517f08c379a0000000000000000000000000000000000000000000000000000000008152600401610956906113dc565b60405180910390fd5b61096881610ab6565b50565b7f000000000000000000000000000000000000000000000000000000000000000081565b60016020528060005260406000206000915090508060000154908060010154908060020154908060030154908060040154905085565b600081606001514210156109dc5760009050610a33565b816080015182604001516109f091906111a7565b4210610a025781600001519050610a33565b8160800151826040015142610a17919061108a565b8360000151610a2691906113fc565b610a30919061146d565b90505b919050565b610a40610b7a565b73ffffffffffffffffffffffffffffffffffffffff16610a5e6104bc565b73ffffffffffffffffffffffffffffffffffffffff1614610ab4576040517f08c379a0000000000000000000000000000000000000000000000000000000008152600401610aab906114ea565b60405180910390fd5b565b60008060009054906101000a900473ffffffffffffffffffffffffffffffffffffffff169050816000806101000a81548173ffffffffffffffffffffffffffffffffffffffff021916908373ffffffffffffffffffffffffffffffffffffffff1602179055508173ffffffffffffffffffffffffffffffffffffffff168173ffffffffffffffffffffffffffffffffffffffff167f8be0079c531659141344cd1fd0a4f28419497f9722a3daafe3b4186f6b6457e060405160405180910390a35050565b600033905090565b6040518060a0016040528060008152602001600081526020016000815260200160008152602001600081525090565b600080fd5b600073ffffffffffffffffffffffffffffffffffffffff82169050919050565b6000610be182610bb6565b9050919050565b610bf181610bd6565b8114610bfc57600080fd5b50565b600081359050610c0e81610be8565b92915050565b600060208284031215610c2a57610c29610bb1565b5b6000610c3884828501610bff565b91505092915050565b6000819050919050565b610c5481610c41565b82525050565b6000602082019050610c6f6000830184610c4b565b92915050565b610c7e81610bd6565b82525050565b6000602082019050610c996000830184610c75565b92915050565b600081519050919050565b600082825260208201905092915050565b6000819050602082019050919050565b610cd481610bd6565b82525050565b6000610ce68383610ccb565b60208301905092915050565b6000602082019050919050565b6000610d0a82610c9f565b610d148185610caa565b9350610d1f83610cbb565b8060005b83811015610d50578151610d378882610cda565b9750610d4283610cf2565b925050600181019050610d23565b5085935050505092915050565b600081519050919050565b600082825260208201905092915050565b6000819050602082019050919050565b610d9281610c41565b82525050565b60a082016000820151610dae6000850182610d89565b506020820151610dc16020850182610d89565b506040820151610dd46040850182610d89565b506060820151610de76060850182610d89565b506080820151610dfa6080850182610d89565b50505050565b6000610e0c8383610d98565b60a08301905092915050565b6000602082019050919050565b6000610e3082610d5d565b610e3a8185610d68565b9350610e4583610d79565b8060005b83811015610e76578151610e5d8882610e00565b9750610e6883610e18565b925050600181019050610e49565b5085935050505092915050565b60006040820190508181036000830152610e9d8185610cff565b90508181036020830152610eb18184610e25565b90509392505050565b610ec381610c41565b8114610ece57600080fd5b50565b600081359050610ee081610eba565b92915050565b600080600080600060a08688031215610f0257610f01610bb1565b5b6000610f1088828901610bff565b9550506020610f2188828901610ed1565b9450506040610f3288828901610ed1565b9350506060610f4388828901610ed1565b9250506080610f5488828901610ed1565b9150509295509295909350565b600060208284031215610f7757610f76610bb1565b5b6000610f8584828501610ed1565b91505092915050565b6000819050919050565b6000610fb3610fae610fa984610bb6565b610f8e565b610bb6565b9050919050565b6000610fc582610f98565b9050919050565b6000610fd782610fba565b9050919050565b610fe781610fcc565b82525050565b60006020820190506110026000830184610fde565b92915050565b600060a08201905061101d6000830188610c4b565b61102a6020830187610c4b565b6110376040830186610c4b565b6110446060830185610c4b565b6110516080830184610c4b565b9695505050505050565b7f4e487b7100000000000000000000000000000000000000000000000000000000600052601160045260246000fd5b600061109582610c41565b91506110a083610c41565b92508282039050818111156110b8576110b761105b565b5b92915050565b600082825260208201905092915050565b7f436c696666206e6f742072656163686564000000000000000000000000000000600082015250565b60006111056011836110be565b9150611110826110cf565b602082019050919050565b60006020820190508181036000830152611134816110f8565b9050919050565b7f4e6f20746f6b656e7320746f2072656c65617365000000000000000000000000600082015250565b60006111716014836110be565b915061117c8261113b565b602082019050919050565b600060208201905081810360008301526111a081611164565b9050919050565b60006111b282610c41565b91506111bd83610c41565b92508282019050808211156111d5576111d461105b565b5b92915050565b60006040820190506111f06000830185610c75565b6111fd6020830184610c4b565b9392505050565b60008115159050919050565b61121981611204565b811461122457600080fd5b50565b60008151905061123681611210565b92915050565b60006020828403121561125257611251610bb1565b5b600061126084828501611227565b91505092915050565b7f4e487b7100000000000000000000000000000000000000000000000000000000600052604160045260246000fd5b7f4e487b7100000000000000000000000000000000000000000000000000000000600052603260045260246000fd5b7f56657374696e6720616c72656164792065786973747300000000000000000000600082015250565b60006112fd6016836110be565b9150611308826112c7565b602082019050919050565b6000602082019050818103600083015261132c816112f0565b9050919050565b60006060820190506113486000830186610c75565b6113556020830185610c4b565b6113626040830184610c4b565b949350505050565b7f4f776e61626c653a206e6577206f776e657220697320746865207a65726f206160008201527f6464726573730000000000000000000000000000000000000000000000000000602082015250565b60006113c66026836110be565b91506113d18261136a565b604082019050919050565b600060208201905081810360008301526113f5816113b9565b9050919050565b600061140782610c41565b915061141283610c41565b925082820261142081610c41565b915082820484148315176114375761143661105b565b5b5092915050565b7f4e487b7100000000000000000000000000000000000000000000000000000000600052601260045260246000fd5b600061147882610c41565b915061148383610c41565b9250826114935761149261143e565b5b828204905092915050565b7f4f776e61626c653a2063616c6c6572206973206e6f7420746865206f776e6572600082015250565b60006114d46020836110be565b91506114df8261149e565b602082019050919050565b60006020820190508181036000830152611503816114c7565b905091905056fea2646970667358221220974a96ba6bfd0e510d07fe84306b59b19dedae6077aeac5b1fd99e824003ef3364736f6c634300081c0033",
  "linkReferences": {},
  "deployedLinkReferences": {}
}