{
  "_format": "hh-sol-artifact-1",
  "contractName": "SquirrelyTailsToken",
  "sourceName": "contracts/SquirrelyTailsToken.sol",
  "abi": [
    {
      "inputs": [],
      "stateMutability": "nonpayable",
      "type": "constructor"
    },
    {
      "anonymous": false,
      "inputs": [
        {
          "indexed": true,
          "internalType": "address",
          "name": "owner",
          "type": "address"
        },
        {
          "indexed": true,
          "internalType": "address",
          "name": "spender",
          "type": "address"
        },
        {
          "indexed": false,
          "internalType": "uint256",
          "name": "value",
          "type": "uint256"
        }
      ],
      "name": "Approval",
      "type": "event"
    },
    {
      "anonymous": false,
      "inputs": [
        {
          "indexed": true,
          "internalType": "address",
          "name": "previousOwner",
          "type": "address"
        },
        {
          "indexed": true,
          "internalType": "address",
          "name": "newOwner",
          "type": "address"
        }
      ],
      "name": "OwnershipTransferred",
      "type": "event"
    },
    {
      "anonymous": false,
      "inputs": [
        {
          "indexed": false,
          "internalType": "address",
          "name": "account",
          "type": "address"
        }
      ],
      "name": "Paused",
      "type": "event"
    },
    {
      "anonymous": false,
      "inputs": [
        {
          "indexed": false,
          "internalType": "uint256",
          "name": "tokensSwapped",
          "type": "uint256"
        },
        {
          "indexed": false,
          "internalType": "uint256",
          "name": "usdcReceived",
          "type": "uint256"
        },
        {
          "indexed": false,
          "internalType": "uint256",
          "name": "tokensIntoLiquidity",
          "type": "uint256"
        }
      ],
      "name": "SwapAndLiquify",
      "type": "event"
    },
    {
      "anonymous": false,
      "inputs": [
        {
          "indexed": true,
          "internalType": "address",
          "name": "from",
          "type": "address"
        },
        {
          "indexed": true,
          "internalType": "address",
          "name": "to",
          "type": "address"
        },
        {
          "indexed": false,
          "internalType": "uint256",
          "name": "value",
          "type": "uint256"
        }
      ],
      "name": "Transfer",
      "type": "event"
    },
    {
      "anonymous": false,
      "inputs": [
        {
          "indexed": false,
          "internalType": "address",
          "name": "account",
          "type": "address"
        }
      ],
      "name": "Unpaused",
      "type": "event"
    },
    {
      "inputs": [],
      "name": "USDC",
      "outputs": [
        {
          "internalType": "address",
          "name": "",
          "type": "address"
        }
      ],
      "stateMutability": "view",
      "type": "function"
    },
    {
      "inputs": [
        {
          "internalType": "address",
          "name": "owner",
          "type": "address"
        },
        {
          "internalType": "address",
          "name": "spender",
          "type": "address"
        }
      ],
      "name": "allowance",
      "outputs": [
        {
          "internalType": "uint256",
          "name": "",
          "type": "uint256"
        }
      ],
      "stateMutability": "view",
      "type": "function"
    },
    {
      "inputs": [
        {
          "internalType": "address",
          "name": "spender",
          "type": "address"
        },
        {
          "internalType": "uint256",
          "name": "amount",
          "type": "uint256"
        }
      ],
      "name": "approve",
      "outputs": [
        {
          "internalType": "bool",
          "name": "",
          "type": "bool"
        }
      ],
      "stateMutability": "nonpayable",
      "type": "function"
    },
    {
      "inputs": [
        {
          "internalType": "address",
          "name": "account",
          "type": "address"
        }
      ],
      "name": "balanceOf",
      "outputs": [
        {
          "internalType": "uint256",
          "name": "",
          "type": "uint256"
        }
      ],
      "stateMutability": "view",
      "type": "function"
    },
    {
      "inputs": [],
      "name": "decimals",
      "outputs": [
        {
          "internalType": "uint8",
          "name": "",
          "type": "uint8"
        }
      ],
      "stateMutability": "view",
      "type": "function"
    },
    {
      "inputs": [
        {
          "internalType": "address",
          "name": "spender",
          "type": "address"
        },
        {
          "internalType": "uint256",
          "name": "subtractedValue",
          "type": "uint256"
        }
      ],
      "name": "decreaseAllowance",
      "outputs": [
        {
          "internalType": "bool",
          "name": "",
          "type": "bool"
        }
      ],
      "stateMutability": "nonpayable",
      "type": "function"
    },
    {
      "inputs": [
        {
          "internalType": "address",
          "name": "account",
          "type": "address"
        }
      ],
      "name": "excludeFromFee",
      "outputs": [],
      "stateMutability": "nonpayable",
      "type": "function"
    },
    {
      "inputs": [],
      "name": "feePercent",
      "outputs": [
        {
          "internalType": "uint256",
          "name": "",
          "type": "uint256"
        }
      ],
      "stateMutability": "view",
      "type": "function"
    },
    {
      "inputs": [
        {
          "internalType": "address",
          "name": "account",
          "type": "address"
        }
      ],
      "name": "includeInFee",
      "outputs": [],
      "stateMutability": "nonpayable",
      "type": "function"
    },
    {
      "inputs": [
        {
          "internalType": "address",
          "name": "spender",
          "type": "address"
        },
        {
          "internalType": "uint256",
          "name": "addedValue",
          "type": "uint256"
        }
      ],
      "name": "increaseAllowance",
      "outputs": [
        {
          "internalType": "bool",
          "name": "",
          "type": "bool"
        }
      ],
      "stateMutability": "nonpayable",
      "type": "function"
    },
    {
      "inputs": [
        {
          "internalType": "address",
          "name": "",
          "type": "address"
        }
      ],
      "name": "isBot",
      "outputs": [
        {
          "internalType": "bool",
          "name": "",
          "type": "bool"
        }
      ],
      "stateMutability": "view",
      "type": "function"
    },
    {
      "inputs": [],
      "name": "maxTxAmount",
      "outputs": [
        {
          "internalType": "uint256",
          "name": "",
          "type": "uint256"
        }
      ],
      "stateMutability": "view",
      "type": "function"
    },
    {
      "inputs": [],
      "name": "maxWalletAmount",
      "outputs": [
        {
          "internalType": "uint256",
          "name": "",
          "type": "uint256"
        }
      ],
      "stateMutability": "view",
      "type": "function"
    },
    {
      "inputs": [
        {
          "internalType": "address",
          "name": "to",
          "type": "address"
        },
        {
          "internalType": "uint256",
          "name": "amount",
          "type": "uint256"
        }
      ],
      "name": "mint",
      "outputs": [],
      "stateMutability": "nonpayable",
      "type": "function"
    },
    {
      "inputs": [],
      "name": "name",
      "outputs": [
        {
          "internalType": "string",
          "name": "",
          "type": "string"
        }
      ],
      "stateMutability": "view",
      "type": "function"
    },
    {
      "inputs": [],
      "name": "owner",
      "outputs": [
        {
          "internalType": "address",
          "name": "",
          "type": "address"
        }
      ],
      "stateMutability": "view",
      "type": "function"
    },
    {
      "inputs": [],
      "name": "pause",
      "outputs": [],
      "stateMutability": "nonpayable",
      "type": "function"
    },
    {
      "inputs": [],
      "name": "paused",
      "outputs": [
        {
          "internalType": "bool",
          "name": "",
          "type": "bool"
        }
      ],
      "stateMutability": "view",
      "type": "function"
    },
    {
      "inputs": [],
      "name": "renounceOwnership",
      "outputs": [],
      "stateMutability": "nonpayable",
      "type": "function"
    },
    {
      "inputs": [],
      "name": "router",
      "outputs": [
        {
          "internalType": "contract IUniswapV2Router02",
          "name": "",
          "type": "address"
        }
      ],
      "stateMutability": "view",
      "type": "function"
    },
    {
      "inputs": [
        {
          "internalType": "address",
          "name": "account",
          "type": "address"
        },
        {
          "internalType": "bool",
          "name": "flagged",
          "type": "bool"
        }
      ],
      "name": "setBot",
      "outputs": [],
      "stateMutability": "nonpayable",
      "type": "function"
    },
    {
      "inputs": [
        {
          "internalType": "uint256",
          "name": "newFee",
          "type": "uint256"
        }
      ],
      "name": "setFeePercent",
      "outputs": [],
      "stateMutability": "nonpayable",
      "type": "function"
    },
    {
      "inputs": [
        {
          "internalType": "uint256",
          "name": "amount",
          "type": "uint256"
        }
      ],
      "name": "setMaxTxAmount",
      "outputs": [],
      "stateMutability": "nonpayable",
      "type": "function"
    },
    {
      "inputs": [
        {
          "internalType": "uint256",
          "name": "amount",
          "type": "uint256"
        }
      ],
      "name": "setMaxWalletAmount",
      "outputs": [],
      "stateMutability": "nonpayable",
      "type": "function"
    },
    {
      "inputs": [
        {
          "internalType": "bool",
          "name": "enabled",
          "type": "bool"
        }
      ],
      "name": "setSwapAndLiquifyEnabled",
      "outputs": [],
      "stateMutability": "nonpayable",
      "type": "function"
    },
    {
      "inputs": [],
      "name": "swapAndLiquifyEnabled",
      "outputs": [
        {
          "internalType": "bool",
          "name": "",
          "type": "bool"
        }
      ],
      "stateMutability": "view",
      "type": "function"
    },
    {
      "inputs": [],
      "name": "symbol",
      "outputs": [
        {
          "internalType": "string",
          "name": "",
          "type": "string"
        }
      ],
      "stateMutability": "view",
      "type": "function"
    },
    {
      "inputs": [],
      "name": "totalSupply",
      "outputs": [
        {
          "internalType": "uint256",
          "name": "",
          "type": "uint256"
        }
      ],
      "stateMutability": "view",
      "type": "function"
    },
    {
      "inputs": [
        {
          "internalType": "address",
          "name": "to",
          "type": "address"
        },
        {
          "internalType": "uint256",
          "name": "amount",
          "type": "uint256"
        }
      ],
      "name": "transfer",
      "outputs": [
        {
          "internalType": "bool",
          "name": "",
          "type": "bool"
        }
      ],
      "stateMutability": "nonpayable",
      "type": "function"
    },
    {
      "inputs": [
        {
          "internalType": "address",
          "name": "from",
          "type": "address"
        },
        {
          "internalType": "address",
          "name": "to",
          "type": "address"
        },
        {
          "internalType": "uint256",
          "name": "amount",
          "type": "uint256"
        }
      ],
      "name": "transferFrom",
      "outputs": [
        {
          "internalType": "bool",
          "name": "",
          "type": "bool"
        }
      ],
      "stateMutability": "nonpayable",
      "type": "function"
    },
    {
      "inputs": [
        {
          "internalType": "address",
          "name": "newOwner",
          "type": "address"
        }
      ],
      "name": "transferOwnership",
      "outputs": [],
      "stateMutability": "nonpayable",
      "type": "function"
    },
    {
      "inputs": [],
      "name": "unpause",
      "outputs": [],
      "stateMutability": "nonpayable",
      "type": "function"
    }
  ],
  "bytecode": "0x608060405260056006556001600760006101000a81548160ff02191690831515021790555073a5e0829caced8ffdd4de3c43696c57f7d7a678ff600760026101000a81548173ffffffffffffffffffffffffffffffffffffffff021916908373ffffffffffffffffffffffffffffffffffffffff160217905550732791bca1f2de4661ed88a30c99a7a9449aa84174600860006101000a81548173ffffffffffffffffffffffffffffffffffffffff021916908373ffffffffffffffffffffffffffffffffffffffff1602179055503480156100da57600080fd5b506040518060400160405280600e81526020017f537175697272656c795461696c730000000000000000000000000000000000008152506040518060400160405280600481526020017f53514c590000000000000000000000000000000000000000000000000000000081525081600390816101569190610f08565b5080600490816101669190610f08565b50505061018561017a61041f60201b60201c565b61042760201b60201c565b6000600560146101000a81548160ff02191690831515021790555060006101b06104ed60201b60201c565b600a6101bc9190611149565b6302faf0806101cb9190611194565b905060006101dd6104ed60201b60201c565b600a6101e99190611149565b624c4b406101f79190611194565b90506000818361020791906111d6565b905061021933836104f660201b60201c565b61022930826104f660201b60201c565b6001600960003373ffffffffffffffffffffffffffffffffffffffff1673ffffffffffffffffffffffffffffffffffffffff16815260200190815260200160002060006101000a81548160ff0219169083151502179055506001600960003073ffffffffffffffffffffffffffffffffffffffff1673ffffffffffffffffffffffffffffffffffffffff16815260200190815260200160002060006101000a81548160ff0219169083151502179055506102e76104ed60201b60201c565b600a6102f39190611149565b620f42406103019190611194565b600b819055506103156104ed60201b60201c565b600a6103219190611149565b624c4b4061032f9190611194565b600c8190555061038830600760029054906101000a900473ffffffffffffffffffffffffffffffffffffffff167fffffffffffffffffffffffffffffffffffffffffffffffffffffffffffffffff61065860201b60201c565b610417600760029054906101000a900473ffffffffffffffffffffffffffffffffffffffff167fffffffffffffffffffffffffffffffffffffffffffffffffffffffffffffffff600860009054906101000a900473ffffffffffffffffffffffffffffffffffffffff1673ffffffffffffffffffffffffffffffffffffffff1661082160201b9092919060201c565b5050506118e1565b600033905090565b6000600560009054906101000a900473ffffffffffffffffffffffffffffffffffffffff16905081600560006101000a81548173ffffffffffffffffffffffffffffffffffffffff021916908373ffffffffffffffffffffffffffffffffffffffff1602179055508173ffffffffffffffffffffffffffffffffffffffff168173ffffffffffffffffffffffffffffffffffffffff167f8be0079c531659141344cd1fd0a4f28419497f9722a3daafe3b4186f6b6457e060405160405180910390a35050565b60006012905090565b600073ffffffffffffffffffffffffffffffffffffffff168273ffffffffffffffffffffffffffffffffffffffff1603610565576040517f08c379a000000000000000000000000000000000000000000000000000000000815260040161055c90611267565b60405180910390fd5b6105776000838361097660201b60201c565b80600260008282546105899190611287565b92505081905550806000808473ffffffffffffffffffffffffffffffffffffffff1673ffffffffffffffffffffffffffffffffffffffff168152602001908152602001600020600082825401925050819055508173ffffffffffffffffffffffffffffffffffffffff16600073ffffffffffffffffffffffffffffffffffffffff167fddf252ad1be2c89b69c2b068fc378daa952ba7f163c4a11628f55a4df523b3ef8360405161063a91906112ca565b60405180910390a36106546000838361099a60201b60201c565b5050565b600073ffffffffffffffffffffffffffffffffffffffff168373ffffffffffffffffffffffffffffffffffffffff16036106c7576040517f08c379a00000000000000000000000000000000000000000000000000000000081526004016106be90611357565b60405180910390fd5b600073ffffffffffffffffffffffffffffffffffffffff168273ffffffffffffffffffffffffffffffffffffffff1603610736576040517f08c379a000000000000000000000000000000000000000000000000000000000815260040161072d906113e9565b60405180910390fd5b80600160008573ffffffffffffffffffffffffffffffffffffffff1673ffffffffffffffffffffffffffffffffffffffff16815260200190815260200160002060008473ffffffffffffffffffffffffffffffffffffffff1673ffffffffffffffffffffffffffffffffffffffff168152602001908152602001600020819055508173ffffffffffffffffffffffffffffffffffffffff168373ffffffffffffffffffffffffffffffffffffffff167f8c5be1e5ebec7d5bd14f71427d1e84f3dd0314c0f7b2291e5b200ac8c7c3b9258360405161081491906112ca565b60405180910390a3505050565b60008114806108ab575060008373ffffffffffffffffffffffffffffffffffffffff1663dd62ed3e30856040518363ffffffff1660e01b815260040161086892919061144a565b602060405180830381865afa158015610885573d6000803e3d6000fd5b505050506040513d601f19601f820116820180604052508101906108a991906114a4565b145b6108ea576040517f08c379a00000000000000000000000000000000000000000000000000000000081526004016108e190611543565b60405180910390fd5b6109718363095ea7b360e01b8484604051602401610909929190611563565b604051602081830303815290604052907bffffffffffffffffffffffffffffffffffffffffffffffffffffffff19166020820180517bffffffffffffffffffffffffffffffffffffffffffffffffffffffff838183161783525050505061099f60201b60201c565b505050565b610984610a6760201b60201c565b610995838383610ab760201b60201c565b505050565b505050565b6000610a01826040518060400160405280602081526020017f5361666545524332303a206c6f772d6c6576656c2063616c6c206661696c65648152508573ffffffffffffffffffffffffffffffffffffffff16610abc60201b9092919060201c565b9050600081511480610a23575080806020019051810190610a2291906115c4565b5b610a62576040517f08c379a0000000000000000000000000000000000000000000000000000000008152600401610a5990611663565b60405180910390fd5b505050565b610a75610ada60201b60201c565b15610ab5576040517f08c379a0000000000000000000000000000000000000000000000000000000008152600401610aac906116cf565b60405180910390fd5b565b505050565b6060610ad18484600085610af160201b60201c565b90509392505050565b6000600560149054906101000a900460ff16905090565b606082471015610b36576040517f08c379a0000000000000000000000000000000000000000000000000000000008152600401610b2d90611761565b60405180910390fd5b6000808673ffffffffffffffffffffffffffffffffffffffff168587604051610b5f91906117f2565b60006040518083038185875af1925050503d8060008114610b9c576040519150601f19603f3d011682016040523d82523d6000602084013e610ba1565b606091505b5091509150610bb887838387610bc460201b60201c565b92505050949350505050565b60608315610c2c576000835103610c2457610be485610c4560201b60201c565b610c23576040517f08c379a0000000000000000000000000000000000000000000000000000000008152600401610c1a90611855565b60405180910390fd5b5b829050610c3d565b610c3c8383610c6860201b60201c565b5b949350505050565b6000808273ffffffffffffffffffffffffffffffffffffffff163b119050919050565b600082511115610c7b5781518083602001fd5b806040517f08c379a0000000000000000000000000000000000000000000000000000000008152600401610caf91906118bf565b60405180910390fd5b600081519050919050565b7f4e487b7100000000000000000000000000000000000000000000000000000000600052604160045260246000fd5b7f4e487b7100000000000000000000000000000000000000000000000000000000600052602260045260246000fd5b60006002820490506001821680610d3957607f821691505b602082108103610d4c57610d4b610cf2565b5b50919050565b60008190508160005260206000209050919050565b60006020601f8301049050919050565b600082821b905092915050565b600060088302610db47fffffffffffffffffffffffffffffffffffffffffffffffffffffffffffffffff82610d77565b610dbe8683610d77565b95508019841693508086168417925050509392505050565b6000819050919050565b6000819050919050565b6000610e05610e00610dfb84610dd6565b610de0565b610dd6565b9050919050565b6000819050919050565b610e1f83610dea565b610e33610e2b82610e0c565b848454610d84565b825550505050565b600090565b610e48610e3b565b610e53818484610e16565b505050565b5b81811015610e7757610e6c600082610e40565b600181019050610e59565b5050565b601f821115610ebc57610e8d81610d52565b610e9684610d67565b81016020851015610ea5578190505b610eb9610eb185610d67565b830182610e58565b50505b505050565b600082821c905092915050565b6000610edf60001984600802610ec1565b1980831691505092915050565b6000610ef88383610ece565b9150826002028217905092915050565b610f1182610cb8565b67ffffffffffffffff811115610f2a57610f29610cc3565b5b610f348254610d21565b610f3f828285610e7b565b600060209050601f831160018114610f725760008415610f60578287015190505b610f6a8582610eec565b865550610fd2565b601f198416610f8086610d52565b60005b82811015610fa857848901518255600182019150602085019450602081019050610f83565b86831015610fc55784890151610fc1601f891682610ece565b8355505b6001600288020188555050505b505050505050565b7f4e487b7100000000000000000000000000000000000000000000000000000000600052601160045260246000fd5b60008160011c9050919050565b6000808291508390505b60018511156110605780860481111561103c5761103b610fda565b5b600185161561104b5780820291505b808102905061105985611009565b9450611020565b94509492505050565b6000826110795760019050611135565b816110875760009050611135565b816001811461109d57600281146110a7576110d6565b6001915050611135565b60ff8411156110b9576110b8610fda565b5b8360020a9150848211156110d0576110cf610fda565b5b50611135565b5060208310610133831016604e8410600b841016171561110b5782820a90508381111561110657611105610fda565b5b611135565b6111188484846001611016565b9250905081840481111561112f5761112e610fda565b5b81810290505b9392505050565b600060ff82169050919050565b600061115482610dd6565b915061115f8361113c565b925061118c7fffffffffffffffffffffffffffffffffffffffffffffffffffffffffffffffff8484611069565b905092915050565b600061119f82610dd6565b91506111aa83610dd6565b92508282026111b881610dd6565b915082820484148315176111cf576111ce610fda565b5b5092915050565b60006111e182610dd6565b91506111ec83610dd6565b925082820390508181111561120457611203610fda565b5b92915050565b600082825260208201905092915050565b7f45524332303a206d696e7420746f20746865207a65726f206164647265737300600082015250565b6000611251601f8361120a565b915061125c8261121b565b602082019050919050565b6000602082019050818103600083015261128081611244565b9050919050565b600061129282610dd6565b915061129d83610dd6565b92508282019050808211156112b5576112b4610fda565b5b92915050565b6112c481610dd6565b82525050565b60006020820190506112df60008301846112bb565b92915050565b7f45524332303a20617070726f76652066726f6d20746865207a65726f2061646460008201527f7265737300000000000000000000000000000000000000000000000000000000602082015250565b600061134160248361120a565b915061134c826112e5565b604082019050919050565b6000602082019050818103600083015261137081611334565b9050919050565b7f45524332303a20617070726f766520746f20746865207a65726f20616464726560008201527f7373000000000000000000000000000000000000000000000000000000000000602082015250565b60006113d360228361120a565b91506113de82611377565b604082019050919050565b60006020820190508181036000830152611402816113c6565b9050919050565b600073ffffffffffffffffffffffffffffffffffffffff82169050919050565b600061143482611409565b9050919050565b61144481611429565b82525050565b600060408201905061145f600083018561143b565b61146c602083018461143b565b9392505050565b600080fd5b61148181610dd6565b811461148c57600080fd5b50565b60008151905061149e81611478565b92915050565b6000602082840312156114ba576114b9611473565b5b60006114c88482850161148f565b91505092915050565b7f5361666545524332303a20617070726f76652066726f6d206e6f6e2d7a65726f60008201527f20746f206e6f6e2d7a65726f20616c6c6f77616e636500000000000000000000602082015250565b600061152d60368361120a565b9150611538826114d1565b604082019050919050565b6000602082019050818103600083015261155c81611520565b9050919050565b6000604082019050611578600083018561143b565b61158560208301846112bb565b9392505050565b60008115159050919050565b6115a18161158c565b81146115ac57600080fd5b50565b6000815190506115be81611598565b92915050565b6000602082840312156115da576115d9611473565b5b60006115e8848285016115af565b91505092915050565b7f5361666545524332303a204552433230206f7065726174696f6e20646964206e60008201527f6f74207375636365656400000000000000000000000000000000000000000000602082015250565b600061164d602a8361120a565b9150611658826115f1565b604082019050919050565b6000602082019050818103600083015261167c81611640565b9050919050565b7f5061757361626c653a2070617573656400000000000000000000000000000000600082015250565b60006116b960108361120a565b91506116c482611683565b602082019050919050565b600060208201905081810360008301526116e8816116ac565b9050919050565b7f416464726573733a20696e73756666696369656e742062616c616e636520666f60008201527f722063616c6c0000000000000000000000000000000000000000000000000000602082015250565b600061174b60268361120a565b9150611756826116ef565b604082019050919050565b6000602082019050818103600083015261177a8161173e565b9050919050565b600081519050919050565b600081905092915050565b60005b838110156117b557808201518184015260208101905061179a565b60008484015250505050565b60006117cc82611781565b6117d6818561178c565b93506117e6818560208601611797565b80840191505092915050565b60006117fe82846117c1565b915081905092915050565b7f416464726573733a2063616c6c20746f206e6f6e2d636f6e7472616374000000600082015250565b600061183f601d8361120a565b915061184a82611809565b602082019050919050565b6000602082019050818103600083015261186e81611832565b9050919050565b6000601f19601f8301169050919050565b600061189182610cb8565b61189b818561120a565b93506118ab818560208601611797565b6118b481611875565b840191505092915050565b600060208201905081810360008301526118d98184611886565b905092915050565b612e1b806118f06000396000f3fe608060405234801561001057600080fd5b50600436106101f05760003560e01c80637ce3489b1161010f578063a9059cbb116100a2578063ea2f0b3711610071578063ea2f0b3714610585578063ec28438a146105a1578063f2fde38b146105bd578063f887ea40146105d9576101f0565b8063a9059cbb146104eb578063aa4bde281461051b578063c49b9a8014610539578063dd62ed3e14610555576101f0565b80638c0b5e22116100de5780638c0b5e22146104615780638da5cb5b1461047f57806395d89b411461049d578063a457c2d7146104bb576101f0565b80637ce3489b146103ff5780637fd6f15c1461041b5780638456cb591461043957806389a3027114610443576101f0565b80633bbac579116101875780634a74bb02116101565780634a74bb02146103895780635c975abb146103a757806370a08231146103c5578063715018a6146103f5576101f0565b80633bbac579146103175780633f4ba83a1461034757806340c10f1914610351578063437823ec1461036d576101f0565b806327a14fc2116101c357806327a14fc214610291578063313ce567146102ad578063342aa8b5146102cb57806339509351146102e7576101f0565b806306fdde03146101f5578063095ea7b31461021357806318160ddd1461024357806323b872dd14610261575b600080fd5b6101fd6105f7565b60405161020a9190611dcb565b60405180910390f35b61022d60048036038101906102289190611e86565b610689565b60405161023a9190611ee1565b60405180910390f35b61024b6106ac565b6040516102589190611f0b565b60405180910390f35b61027b60048036038101906102769190611f26565b6106b6565b6040516102889190611ee1565b60405180910390f35b6102ab60048036038101906102a69190611f79565b6106e5565b005b6102b56106f7565b6040516102c29190611fc2565b60405180910390f35b6102e560048036038101906102e09190612009565b610700565b005b61030160048036038101906102fc9190611e86565b610763565b60405161030e9190611ee1565b60405180910390f35b610331600480360381019061032c9190612049565b61079a565b60405161033e9190611ee1565b60405180910390f35b61034f6107ba565b005b61036b60048036038101906103669190611e86565b6107cc565b005b61038760048036038101906103829190612049565b6107e2565b005b610391610845565b60405161039e9190611ee1565b60405180910390f35b6103af610858565b6040516103bc9190611ee1565b60405180910390f35b6103df60048036038101906103da9190612049565b61086f565b6040516103ec9190611f0b565b60405180910390f35b6103fd6108b7565b005b61041960048036038101906104149190611f79565b6108cb565b005b610423610921565b6040516104309190611f0b565b60405180910390f35b610441610927565b005b61044b610939565b6040516104589190612085565b60405180910390f35b61046961095f565b6040516104769190611f0b565b60405180910390f35b610487610965565b6040516104949190612085565b60405180910390f35b6104a561098f565b6040516104b29190611dcb565b60405180910390f35b6104d560048036038101906104d09190611e86565b610a21565b6040516104e29190611ee1565b60405180910390f35b61050560048036038101906105009190611e86565b610a98565b6040516105129190611ee1565b60405180910390f35b610523610abb565b6040516105309190611f0b565b60405180910390f35b610553600480360381019061054e91906120a0565b610ac1565b005b61056f600480360381019061056a91906120cd565b610ae6565b60405161057c9190611f0b565b60405180910390f35b61059f600480360381019061059a9190612049565b610b6d565b005b6105bb60048036038101906105b69190611f79565b610bd0565b005b6105d760048036038101906105d29190612049565b610be2565b005b6105e1610c65565b6040516105ee919061216c565b60405180910390f35b606060038054610606906121b6565b80601f0160208091040260200160405190810160405280929190818152602001828054610632906121b6565b801561067f5780601f106106545761010080835404028352916020019161067f565b820191906000526020600020905b81548152906001019060200180831161066257829003601f168201915b5050505050905090565b600080610694610c8b565b90506106a1818585610c93565b600191505092915050565b6000600254905090565b6000806106c1610c8b565b90506106ce858285610e5c565b6106d9858585610ee8565b60019150509392505050565b6106ed611242565b80600c8190555050565b60006012905090565b610708611242565b80600a60008473ffffffffffffffffffffffffffffffffffffffff1673ffffffffffffffffffffffffffffffffffffffff16815260200190815260200160002060006101000a81548160ff0219169083151502179055505050565b60008061076e610c8b565b905061078f8185856107808589610ae6565b61078a9190612216565b610c93565b600191505092915050565b600a6020528060005260406000206000915054906101000a900460ff1681565b6107c2611242565b6107ca6112c0565b565b6107d4611242565b6107de8282611323565b5050565b6107ea611242565b6001600960008373ffffffffffffffffffffffffffffffffffffffff1673ffffffffffffffffffffffffffffffffffffffff16815260200190815260200160002060006101000a81548160ff02191690831515021790555050565b600760009054906101000a900460ff1681565b6000600560149054906101000a900460ff16905090565b60008060008373ffffffffffffffffffffffffffffffffffffffff1673ffffffffffffffffffffffffffffffffffffffff168152602001908152602001600020549050919050565b6108bf611242565b6108c96000611479565b565b6108d3611242565b6014811115610917576040517f08c379a000000000000000000000000000000000000000000000000000000000815260040161090e90612296565b60405180910390fd5b8060068190555050565b60065481565b61092f611242565b61093761153f565b565b600860009054906101000a900473ffffffffffffffffffffffffffffffffffffffff1681565b600b5481565b6000600560009054906101000a900473ffffffffffffffffffffffffffffffffffffffff16905090565b60606004805461099e906121b6565b80601f01602080910402602001604051908101604052809291908181526020018280546109ca906121b6565b8015610a175780601f106109ec57610100808354040283529160200191610a17565b820191906000526020600020905b8154815290600101906020018083116109fa57829003601f168201915b5050505050905090565b600080610a2c610c8b565b90506000610a3a8286610ae6565b905083811015610a7f576040517f08c379a0000000000000000000000000000000000000000000000000000000008152600401610a7690612328565b60405180910390fd5b610a8c8286868403610c93565b60019250505092915050565b600080610aa3610c8b565b9050610ab0818585610ee8565b600191505092915050565b600c5481565b610ac9611242565b80600760006101000a81548160ff02191690831515021790555050565b6000600160008473ffffffffffffffffffffffffffffffffffffffff1673ffffffffffffffffffffffffffffffffffffffff16815260200190815260200160002060008373ffffffffffffffffffffffffffffffffffffffff1673ffffffffffffffffffffffffffffffffffffffff16815260200190815260200160002054905092915050565b610b75611242565b6000600960008373ffffffffffffffffffffffffffffffffffffffff1673ffffffffffffffffffffffffffffffffffffffff16815260200190815260200160002060006101000a81548160ff02191690831515021790555050565b610bd8611242565b80600b8190555050565b610bea611242565b600073ffffffffffffffffffffffffffffffffffffffff168173ffffffffffffffffffffffffffffffffffffffff1603610c59576040517f08c379a0000000000000000000000000000000000000000000000000000000008152600401610c50906123ba565b60405180910390fd5b610c6281611479565b50565b600760029054906101000a900473ffffffffffffffffffffffffffffffffffffffff1681565b600033905090565b600073ffffffffffffffffffffffffffffffffffffffff168373ffffffffffffffffffffffffffffffffffffffff1603610d02576040517f08c379a0000000000000000000000000000000000000000000000000000000008152600401610cf99061244c565b60405180910390fd5b600073ffffffffffffffffffffffffffffffffffffffff168273ffffffffffffffffffffffffffffffffffffffff1603610d71576040517f08c379a0000000000000000000000000000000000000000000000000000000008152600401610d68906124de565b60405180910390fd5b80600160008573ffffffffffffffffffffffffffffffffffffffff1673ffffffffffffffffffffffffffffffffffffffff16815260200190815260200160002060008473ffffffffffffffffffffffffffffffffffffffff1673ffffffffffffffffffffffffffffffffffffffff168152602001908152602001600020819055508173ffffffffffffffffffffffffffffffffffffffff168373ffffffffffffffffffffffffffffffffffffffff167f8c5be1e5ebec7d5bd14f71427d1e84f3dd0314c0f7b2291e5b200ac8c7c3b92583604051610e4f9190611f0b565b60405180910390a3505050565b6000610e688484610ae6565b90507fffffffffffffffffffffffffffffffffffffffffffffffffffffffffffffffff8114610ee25781811015610ed4576040517f08c379a0000000000000000000000000000000000000000000000000000000008152600401610ecb9061254a565b60405180910390fd5b610ee18484848403610c93565b5b50505050565b600a60008473ffffffffffffffffffffffffffffffffffffffff1673ffffffffffffffffffffffffffffffffffffffff16815260200190815260200160002060009054906101000a900460ff16158015610f8c5750600a60008373ffffffffffffffffffffffffffffffffffffffff1673ffffffffffffffffffffffffffffffffffffffff16815260200190815260200160002060009054906101000a900460ff16155b610fcb576040517f08c379a0000000000000000000000000000000000000000000000000000000008152600401610fc2906125b6565b60405180910390fd5b600760019054906101000a900460ff168061102f5750600960008473ffffffffffffffffffffffffffffffffffffffff1673ffffffffffffffffffffffffffffffffffffffff16815260200190815260200160002060009054906101000a900460ff165b806110835750600960008373ffffffffffffffffffffffffffffffffffffffff1673ffffffffffffffffffffffffffffffffffffffff16815260200190815260200160002060009054906101000a900460ff165b15611098576110938383836115a2565b61123d565b6000600b5411156110e957600b548111156110e8576040517f08c379a00000000000000000000000000000000000000000000000000000000081526004016110df90612622565b60405180910390fd5b5b60006064600654836110fb9190612642565b61110591906126b3565b90506000818361111591906126e4565b90506111228530846115a2565b61112d8585836115a2565b6000600c541180156111895750600960008573ffffffffffffffffffffffffffffffffffffffff1673ffffffffffffffffffffffffffffffffffffffff16815260200190815260200160002060009054906101000a900460ff16155b80156111c85750611198610965565b73ffffffffffffffffffffffffffffffffffffffff168473ffffffffffffffffffffffffffffffffffffffff1614155b1561121b57600c546111d98561086f565b111561121a576040517f08c379a000000000000000000000000000000000000000000000000000000000815260040161121190612764565b60405180910390fd5b5b600760009054906101000a900460ff161561123a5761123982611818565b5b50505b505050565b61124a610c8b565b73ffffffffffffffffffffffffffffffffffffffff16611268610965565b73ffffffffffffffffffffffffffffffffffffffff16146112be576040517f08c379a00000000000000000000000000000000000000000000000000000000081526004016112b5906127d0565b60405180910390fd5b565b6112c8611ade565b6000600560146101000a81548160ff0219169083151502179055507f5db9ee0a495bf2e6ff9c91a7834c1ba4fdd244a5e8aa4e537bd38aeae4b073aa61130c610c8b565b6040516113199190612085565b60405180910390a1565b600073ffffffffffffffffffffffffffffffffffffffff168273ffffffffffffffffffffffffffffffffffffffff1603611392576040517f08c379a00000000000000000000000000000000000000000000000000000000081526004016113899061283c565b60405180910390fd5b61139e60008383611b27565b80600260008282546113b09190612216565b92505081905550806000808473ffffffffffffffffffffffffffffffffffffffff1673ffffffffffffffffffffffffffffffffffffffff168152602001908152602001600020600082825401925050819055508173ffffffffffffffffffffffffffffffffffffffff16600073ffffffffffffffffffffffffffffffffffffffff167fddf252ad1be2c89b69c2b068fc378daa952ba7f163c4a11628f55a4df523b3ef836040516114619190611f0b565b60405180910390a361147560008383611b3f565b5050565b6000600560009054906101000a900473ffffffffffffffffffffffffffffffffffffffff16905081600560006101000a81548173ffffffffffffffffffffffffffffffffffffffff021916908373ffffffffffffffffffffffffffffffffffffffff1602179055508173ffffffffffffffffffffffffffffffffffffffff168173ffffffffffffffffffffffffffffffffffffffff167f8be0079c531659141344cd1fd0a4f28419497f9722a3daafe3b4186f6b6457e060405160405180910390a35050565b611547611b44565b6001600560146101000a81548160ff0219169083151502179055507f62e78cea01bee320cd4e420270b5ea74000d11b0c9f74754ebdbfc544b05a25861158b610c8b565b6040516115989190612085565b60405180910390a1565b600073ffffffffffffffffffffffffffffffffffffffff168373ffffffffffffffffffffffffffffffffffffffff1603611611576040517f08c379a0000000000000000000000000000000000000000000000000000000008152600401611608906128ce565b60405180910390fd5b600073ffffffffffffffffffffffffffffffffffffffff168273ffffffffffffffffffffffffffffffffffffffff1603611680576040517f08c379a000000000000000000000000000000000000000000000000000000000815260040161167790612960565b60405180910390fd5b61168b838383611b27565b60008060008573ffffffffffffffffffffffffffffffffffffffff1673ffffffffffffffffffffffffffffffffffffffff16815260200190815260200160002054905081811015611711576040517f08c379a0000000000000000000000000000000000000000000000000000000008152600401611708906129f2565b60405180910390fd5b8181036000808673ffffffffffffffffffffffffffffffffffffffff1673ffffffffffffffffffffffffffffffffffffffff16815260200190815260200160002081905550816000808573ffffffffffffffffffffffffffffffffffffffff1673ffffffffffffffffffffffffffffffffffffffff168152602001908152602001600020600082825401925050819055508273ffffffffffffffffffffffffffffffffffffffff168473ffffffffffffffffffffffffffffffffffffffff167fddf252ad1be2c89b69c2b068fc378daa952ba7f163c4a11628f55a4df523b3ef846040516117ff9190611f0b565b60405180910390a3611812848484611b3f565b50505050565b6001600760016101000a81548160ff021916908315150217905550600060028261184291906126b3565b90506000818361185291906126e4565b90506000600860009054906101000a900473ffffffffffffffffffffffffffffffffffffffff1673ffffffffffffffffffffffffffffffffffffffff166370a08231306040518263ffffffff1660e01b81526004016118b19190612085565b602060405180830381865afa1580156118ce573d6000803e3d6000fd5b505050506040513d601f19601f820116820180604052508101906118f29190612a27565b90506118fd83611b8e565b600081600860009054906101000a900473ffffffffffffffffffffffffffffffffffffffff1673ffffffffffffffffffffffffffffffffffffffff166370a08231306040518263ffffffff1660e01b815260040161195b9190612085565b602060405180830381865afa158015611978573d6000803e3d6000fd5b505050506040513d601f19601f8201168201806040525081019061199c9190612a27565b6119a691906126e4565b9050600760029054906101000a900473ffffffffffffffffffffffffffffffffffffffff1673ffffffffffffffffffffffffffffffffffffffff1663e8e3370030600860009054906101000a900473ffffffffffffffffffffffffffffffffffffffff168685600080611a17610965565b426040518963ffffffff1660e01b8152600401611a3b989796959493929190612a8f565b6060604051808303816000875af1158015611a5a573d6000803e3d6000fd5b505050506040513d601f19601f82011682018060405250810190611a7e9190612b0d565b5050507f17bbfb9a6069321b6ded73bd96327c9e6b7212a5cd51ff219cd61370acafb561848285604051611ab493929190612b60565b60405180910390a1505050506000600760016101000a81548160ff02191690831515021790555050565b611ae6610858565b611b25576040517f08c379a0000000000000000000000000000000000000000000000000000000008152600401611b1c90612be3565b60405180910390fd5b565b611b2f611b44565b611b3a838383611d36565b505050565b505050565b611b4c610858565b15611b8c576040517f08c379a0000000000000000000000000000000000000000000000000000000008152600401611b8390612c4f565b60405180910390fd5b565b6000600267ffffffffffffffff811115611bab57611baa612c6f565b5b604051908082528060200260200182016040528015611bd95781602001602082028036833780820191505090505b5090503081600081518110611bf157611bf0612c9e565b5b602002602001019073ffffffffffffffffffffffffffffffffffffffff16908173ffffffffffffffffffffffffffffffffffffffff1681525050600860009054906101000a900473ffffffffffffffffffffffffffffffffffffffff1681600181518110611c6257611c61612c9e565b5b602002602001019073ffffffffffffffffffffffffffffffffffffffff16908173ffffffffffffffffffffffffffffffffffffffff1681525050600760029054906101000a900473ffffffffffffffffffffffffffffffffffffffff1673ffffffffffffffffffffffffffffffffffffffff16635c11d7958360008430426040518663ffffffff1660e01b8152600401611d00959493929190612d8b565b600060405180830381600087803b158015611d1a57600080fd5b505af1158015611d2e573d6000803e3d6000fd5b505050505050565b505050565b600081519050919050565b600082825260208201905092915050565b60005b83811015611d75578082015181840152602081019050611d5a565b60008484015250505050565b6000601f19601f8301169050919050565b6000611d9d82611d3b565b611da78185611d46565b9350611db7818560208601611d57565b611dc081611d81565b840191505092915050565b60006020820190508181036000830152611de58184611d92565b905092915050565b600080fd5b600073ffffffffffffffffffffffffffffffffffffffff82169050919050565b6000611e1d82611df2565b9050919050565b611e2d81611e12565b8114611e3857600080fd5b50565b600081359050611e4a81611e24565b92915050565b6000819050919050565b611e6381611e50565b8114611e6e57600080fd5b50565b600081359050611e8081611e5a565b92915050565b60008060408385031215611e9d57611e9c611ded565b5b6000611eab85828601611e3b565b9250506020611ebc85828601611e71565b9150509250929050565b60008115159050919050565b611edb81611ec6565b82525050565b6000602082019050611ef66000830184611ed2565b92915050565b611f0581611e50565b82525050565b6000602082019050611f206000830184611efc565b92915050565b600080600060608486031215611f3f57611f3e611ded565b5b6000611f4d86828701611e3b565b9350506020611f5e86828701611e3b565b9250506040611f6f86828701611e71565b9150509250925092565b600060208284031215611f8f57611f8e611ded565b5b6000611f9d84828501611e71565b91505092915050565b600060ff82169050919050565b611fbc81611fa6565b82525050565b6000602082019050611fd76000830184611fb3565b92915050565b611fe681611ec6565b8114611ff157600080fd5b50565b60008135905061200381611fdd565b92915050565b600080604083850312156120205761201f611ded565b5b600061202e85828601611e3b565b925050602061203f85828601611ff4565b9150509250929050565b60006020828403121561205f5761205e611ded565b5b600061206d84828501611e3b565b91505092915050565b61207f81611e12565b82525050565b600060208201905061209a6000830184612076565b92915050565b6000602082840312156120b6576120b5611ded565b5b60006120c484828501611ff4565b91505092915050565b600080604083850312156120e4576120e3611ded565b5b60006120f285828601611e3b565b925050602061210385828601611e3b565b9150509250929050565b6000819050919050565b600061213261212d61212884611df2565b61210d565b611df2565b9050919050565b600061214482612117565b9050919050565b600061215682612139565b9050919050565b6121668161214b565b82525050565b6000602082019050612181600083018461215d565b92915050565b7f4e487b7100000000000000000000000000000000000000000000000000000000600052602260045260246000fd5b600060028204905060018216806121ce57607f821691505b6020821081036121e1576121e0612187565b5b50919050565b7f4e487b7100000000000000000000000000000000000000000000000000000000600052601160045260246000fd5b600061222182611e50565b915061222c83611e50565b9250828201905080821115612244576122436121e7565b5b92915050565b7f46656520746f6f20686967680000000000000000000000000000000000000000600082015250565b6000612280600c83611d46565b915061228b8261224a565b602082019050919050565b600060208201905081810360008301526122af81612273565b9050919050565b7f45524332303a2064656372656173656420616c6c6f77616e63652062656c6f7760008201527f207a65726f000000000000000000000000000000000000000000000000000000602082015250565b6000612312602583611d46565b915061231d826122b6565b604082019050919050565b6000602082019050818103600083015261234181612305565b9050919050565b7f4f776e61626c653a206e6577206f776e657220697320746865207a65726f206160008201527f6464726573730000000000000000000000000000000000000000000000000000602082015250565b60006123a4602683611d46565b91506123af82612348565b604082019050919050565b600060208201905081810360008301526123d381612397565b9050919050565b7f45524332303a20617070726f76652066726f6d20746865207a65726f2061646460008201527f7265737300000000000000000000000000000000000000000000000000000000602082015250565b6000612436602483611d46565b9150612441826123da565b604082019050919050565b6000602082019050818103600083015261246581612429565b9050919050565b7f45524332303a20617070726f766520746f20746865207a65726f20616464726560008201527f7373000000000000000000000000000000000000000000000000000000000000602082015250565b60006124c8602283611d46565b91506124d38261246c565b604082019050919050565b600060208201905081810360008301526124f7816124bb565b9050919050565b7f45524332303a20696e73756666696369656e7420616c6c6f77616e6365000000600082015250565b6000612534601d83611d46565b915061253f826124fe565b602082019050919050565b6000602082019050818103600083015261256381612527565b9050919050565b7f426f742061646472657373206465746563746564000000000000000000000000600082015250565b60006125a0601483611d46565b91506125ab8261256a565b602082019050919050565b600060208201905081810360008301526125cf81612593565b9050919050565b7f45786365656473206d61785478416d6f756e7400000000000000000000000000600082015250565b600061260c601383611d46565b9150612617826125d6565b602082019050919050565b6000602082019050818103600083015261263b816125ff565b9050919050565b600061264d82611e50565b915061265883611e50565b925082820261266681611e50565b9150828204841483151761267d5761267c6121e7565b5b5092915050565b7f4e487b7100000000000000000000000000000000000000000000000000000000600052601260045260246000fd5b60006126be82611e50565b91506126c983611e50565b9250826126d9576126d8612684565b5b828204905092915050565b60006126ef82611e50565b91506126fa83611e50565b9250828203905081811115612712576127116121e7565b5b92915050565b7f45786365656473206d617857616c6c6574416d6f756e74000000000000000000600082015250565b600061274e601783611d46565b915061275982612718565b602082019050919050565b6000602082019050818103600083015261277d81612741565b9050919050565b7f4f776e61626c653a2063616c6c6572206973206e6f7420746865206f776e6572600082015250565b60006127ba602083611d46565b91506127c582612784565b602082019050919050565b600060208201905081810360008301526127e9816127ad565b9050919050565b7f45524332303a206d696e7420746f20746865207a65726f206164647265737300600082015250565b6000612826601f83611d46565b9150612831826127f0565b602082019050919050565b6000602082019050818103600083015261285581612819565b9050919050565b7f45524332303a207472616e736665722066726f6d20746865207a65726f20616460008201527f6472657373000000000000000000000000000000000000000000000000000000602082015250565b60006128b8602583611d46565b91506128c38261285c565b604082019050919050565b600060208201905081810360008301526128e7816128ab565b9050919050565b7f45524332303a207472616e7366657220746f20746865207a65726f206164647260008201527f6573730000000000000000000000000000000000000000000000000000000000602082015250565b600061294a602383611d46565b9150612955826128ee565b604082019050919050565b600060208201905081810360008301526129798161293d565b9050919050565b7f45524332303a207472616e7366657220616d6f756e742065786365656473206260008201527f616c616e63650000000000000000000000000000000000000000000000000000602082015250565b60006129dc602683611d46565b91506129e782612980565b604082019050919050565b60006020820190508181036000830152612a0b816129cf565b9050919050565b600081519050612a2181611e5a565b92915050565b600060208284031215612a3d57612a3c611ded565b5b6000612a4b84828501612a12565b91505092915050565b6000819050919050565b6000612a79612a74612a6f84612a54565b61210d565b611e50565b9050919050565b612a8981612a5e565b82525050565b600061010082019050612aa5600083018b612076565b612ab2602083018a612076565b612abf6040830189611efc565b612acc6060830188611efc565b612ad96080830187612a80565b612ae660a0830186612a80565b612af360c0830185612076565b612b0060e0830184611efc565b9998505050505050505050565b600080600060608486031215612b2657612b25611ded565b5b6000612b3486828701612a12565b9350506020612b4586828701612a12565b9250506040612b5686828701612a12565b9150509250925092565b6000606082019050612b756000830186611efc565b612b826020830185611efc565b612b8f6040830184611efc565b949350505050565b7f5061757361626c653a206e6f7420706175736564000000000000000000000000600082015250565b6000612bcd601483611d46565b9150612bd882612b97565b602082019050919050565b60006020820190508181036000830152612bfc81612bc0565b9050919050565b7f5061757361626c653a2070617573656400000000000000000000000000000000600082015250565b6000612c39601083611d46565b9150612c4482612c03565b602082019050919050565b60006020820190508181036000830152612c6881612c2c565b9050919050565b7f4e487b7100000000000000000000000000000000000000000000000000000000600052604160045260246000fd5b7f4e487b7100000000000000000000000000000000000000000000000000000000600052603260045260246000fd5b600081519050919050565b600082825260208201905092915050565b6000819050602082019050919050565b612d0281611e12565b82525050565b6000612d148383612cf9565b60208301905092915050565b6000602082019050919050565b6000612d3882612ccd565b612d428185612cd8565b9350612d4d83612ce9565b8060005b83811015612d7e578151612d658882612d08565b9750612d7083612d20565b925050600181019050612d51565b5085935050505092915050565b600060a082019050612da06000830188611efc565b612dad6020830187612a80565b8181036040830152612dbf8186612d2d565b9050612dce6060830185612076565b612ddb6080830184611efc565b969550505050505056fea264697066735822122010d1c592f670d4e8176f9537c72f8beb9194b079f3dffc4abf4ef60c847b33f864736f6c634300081c0033",
  "linkReferences": {},
  "deployedLinkReferences": {}
}