{
  "_format": "hh-sol-artifact-1",
  "contractName": "SQLYTokenSale",
  "sourceName": "contracts/SQLYTokenSale.sol",
  "abi": [
    {
      "inputs": [
        {
          "internalType": "contract IERC20Metadata",
          "name": "_sqlyToken",
          "type": "address"
        },
        {
          "internalType": "contract IERC20Metadata",
          "name": "_usdcToken",
          "type": "address"
        },
        {
          "internalType": "address",
          "name": "_wallet",
          "type": "address"
        },
        {
          "internalType": "uint256",
          "name": "_tokensPerUsdc",
          "type": "uint256"
        }
      ],
      "stateMutability": "nonpayable",
      "type": "constructor"
    },
    {
      "anonymous": false,
      "inputs": [
        {
          "indexed": true,
          "internalType": "address",
          "name": "previousOwner",
          "type": "address"
        },
        {
          "indexed": true,
          "internalType": "address",
          "name": "newOwner",
          "type": "address"
        }
      ],
      "name": "OwnershipTransferred",
      "type": "event"
    },
    {
      "anonymous": false,
      "inputs": [
        {
          "indexed": true,
          "internalType": "address",
          "name": "purchaser",
          "type": "address"
        },
        {
          "indexed": false,
          "internalType": "uint256",
          "name": "usdcAmount",
          "type": "uint256"
        },
        {
          "indexed": false,
          "internalType": "uint256",
          "name": "sqlyAmount",
          "type": "uint256"
        }
      ],
      "name": "TokensPurchased",
      "type": "event"
    },
    {
      "inputs": [
        {
          "internalType": "uint256",
          "name": "usdcAmount",
          "type": "uint256"
        }
      ],
      "name": "buy",
      "outputs": [],
      "stateMutability": "nonpayable",
      "type": "function"
    },
    {
      "inputs": [],
      "name": "owner",
      "outputs": [
        {
          "internalType": "address",
          "name": "",
          "type": "address"
        }
      ],
      "stateMutability": "view",
      "type": "function"
    },
    {
      "inputs": [],
      "name": "renounceOwnership",
      "outputs": [],
      "stateMutability": "nonpayable",
      "type": "function"
    },
    {
      "inputs": [
        {
          "internalType": "uint256",
          "name": "newRate",
          "type": "uint256"
        }
      ],
      "name": "setRate",
      "outputs": [],
      "stateMutability": "nonpayable",
      "type": "function"
    },
    {
      "inputs": [],
      "name": "sqlyToken",
      "outputs": [
        {
          "internalType": "contract IERC20Metadata",
          "name": "",
          "type": "address"
        }
      ],
      "stateMutability": "view",
      "type": "function"
    },
    {
      "inputs": [],
      "name": "tokensPerUsdc",
      "outputs": [
        {
          "internalType": "uint256",
          "name": "",
          "type": "uint256"
        }
      ],
      "stateMutability": "view",
      "type": "function"
    },
    {
      "inputs": [
        {
          "internalType": "address",
          "name": "newOwner",
          "type": "address"
        }
      ],
      "name": "transferOwnership",
      "outputs": [],
      "stateMutability": "nonpayable",
      "type": "function"
    },
    {
      "inputs": [],
      "name": "usdcToken",
      "outputs": [
        {
          "internalType": "contract IERC20Metadata",
          "name": "",
          "type": "address"
        }
      ],
      "stateMutability": "view",
      "type": "function"
    },
    {
      "inputs": [],
      "name": "wallet",
      "outputs": [
        {
          "internalType": "address",
          "name": "",
          "type": "address"
        }
      ],
      "stateMutability": "view",
      "type": "function"
    }
  ],
  "bytecode": "0x60e060405234801561001057600080fd5b50604051611959380380611959833981810160405281019061003291906103ea565b61004e61004361024760201b60201c565b61024f60201b60201c565b600073ffffffffffffffffffffffffffffffffffffffff168473ffffffffffffffffffffffffffffffffffffffff16036100bd576040517f08c379a00000000000000000000000000000000000000000000000000000000081526004016100b4906104ae565b60405180910390fd5b600073ffffffffffffffffffffffffffffffffffffffff168373ffffffffffffffffffffffffffffffffffffffff160361012c576040517f08c379a00000000000000000000000000000000000000000000000000000000081526004016101239061051a565b60405180910390fd5b600073ffffffffffffffffffffffffffffffffffffffff168273ffffffffffffffffffffffffffffffffffffffff160361019b576040517f08c379a000000000000000000000000000000000000000000000000000000000815260040161019290610586565b60405180910390fd5b8373ffffffffffffffffffffffffffffffffffffffff1660808173ffffffffffffffffffffffffffffffffffffffff16815250508273ffffffffffffffffffffffffffffffffffffffff1660a08173ffffffffffffffffffffffffffffffffffffffff16815250508173ffffffffffffffffffffffffffffffffffffffff1660c08173ffffffffffffffffffffffffffffffffffffffff168152505080600181905550505050506105a6565b600033905090565b60008060009054906101000a900473ffffffffffffffffffffffffffffffffffffffff169050816000806101000a81548173ffffffffffffffffffffffffffffffffffffffff021916908373ffffffffffffffffffffffffffffffffffffffff1602179055508173ffffffffffffffffffffffffffffffffffffffff168173ffffffffffffffffffffffffffffffffffffffff167f8be0079c531659141344cd1fd0a4f28419497f9722a3daafe3b4186f6b6457e060405160405180910390a35050565b600080fd5b600073ffffffffffffffffffffffffffffffffffffffff82169050919050565b600061034382610318565b9050919050565b600061035582610338565b9050919050565b6103658161034a565b811461037057600080fd5b50565b6000815190506103828161035c565b92915050565b61039181610338565b811461039c57600080fd5b50565b6000815190506103ae81610388565b92915050565b6000819050919050565b6103c7816103b4565b81146103d257600080fd5b50565b6000815190506103e4816103be565b92915050565b6000806000806080858703121561040457610403610313565b5b600061041287828801610373565b945050602061042387828801610373565b93505060406104348782880161039f565b9250506060610445878288016103d5565b91505092959194509250565b600082825260208201905092915050565b7f496e76616c69642053514c5920746f6b656e0000000000000000000000000000600082015250565b6000610498601283610451565b91506104a382610462565b602082019050919050565b600060208201905081810360008301526104c78161048b565b9050919050565b7f496e76616c6964205553444320746f6b656e0000000000000000000000000000600082015250565b6000610504601283610451565b915061050f826104ce565b602082019050919050565b60006020820190508181036000830152610533816104f7565b9050919050565b7f496e76616c69642077616c6c6574000000000000000000000000000000000000600082015250565b6000610570600e83610451565b915061057b8261053a565b602082019050919050565b6000602082019050818103600083015261059f81610563565b9050919050565b60805160a05160c0516113686105f1600039600081816101ca015261034d01526000818161018e01528181610294015261036f01526000818161022b01526103bb01526113686000f3fe608060405234801561001057600080fd5b50600436106100935760003560e01c8063715018a611610066578063715018a61461010e5780638da5cb5b14610118578063c800f42d14610136578063d96a094a14610154578063f2fde38b1461017057610093565b806311eac8551461009857806314c4e13f146100b657806334fcf437146100d4578063521eb273146100f0575b600080fd5b6100a061018c565b6040516100ad9190610a43565b60405180910390f35b6100be6101b0565b6040516100cb9190610a77565b60405180910390f35b6100ee60048036038101906100e99190610ac3565b6101b6565b005b6100f86101c8565b6040516101059190610b11565b60405180910390f35b6101166101ec565b005b610120610200565b60405161012d9190610b11565b60405180910390f35b61013e610229565b60405161014b9190610a43565b60405180910390f35b61016e60048036038101906101699190610ac3565b61024d565b005b61018a60048036038101906101859190610b58565b610453565b005b7f000000000000000000000000000000000000000000000000000000000000000081565b60015481565b6101be6104d6565b8060018190555050565b7f000000000000000000000000000000000000000000000000000000000000000081565b6101f46104d6565b6101fe6000610554565b565b60008060009054906101000a900473ffffffffffffffffffffffffffffffffffffffff16905090565b7f000000000000000000000000000000000000000000000000000000000000000081565b60008111610290576040517f08c379a000000000000000000000000000000000000000000000000000000000815260040161028790610be2565b60405180910390fd5b60007f000000000000000000000000000000000000000000000000000000000000000073ffffffffffffffffffffffffffffffffffffffff1663313ce5676040518163ffffffff1660e01b8152600401602060405180830381865afa1580156102fd573d6000803e3d6000fd5b505050506040513d601f19601f820116820180604052508101906103219190610c3b565b600a61032d9190610dca565b6001548361033b9190610e15565b6103459190610e86565b90506103b4337f0000000000000000000000000000000000000000000000000000000000000000847f000000000000000000000000000000000000000000000000000000000000000073ffffffffffffffffffffffffffffffffffffffff16610618909392919063ffffffff16565b6103ff33827f000000000000000000000000000000000000000000000000000000000000000073ffffffffffffffffffffffffffffffffffffffff166106a19092919063ffffffff16565b3373ffffffffffffffffffffffffffffffffffffffff167f8fafebcaf9d154343dad25669bfa277f4fbacd7ac6b0c4fed522580e040a0f338383604051610447929190610eb7565b60405180910390a25050565b61045b6104d6565b600073ffffffffffffffffffffffffffffffffffffffff168173ffffffffffffffffffffffffffffffffffffffff16036104ca576040517f08c379a00000000000000000000000000000000000000000000000000000000081526004016104c190610f52565b60405180910390fd5b6104d381610554565b50565b6104de610727565b73ffffffffffffffffffffffffffffffffffffffff166104fc610200565b73ffffffffffffffffffffffffffffffffffffffff1614610552576040517f08c379a000000000000000000000000000000000000000000000000000000000815260040161054990610fbe565b60405180910390fd5b565b60008060009054906101000a900473ffffffffffffffffffffffffffffffffffffffff169050816000806101000a81548173ffffffffffffffffffffffffffffffffffffffff021916908373ffffffffffffffffffffffffffffffffffffffff1602179055508173ffffffffffffffffffffffffffffffffffffffff168173ffffffffffffffffffffffffffffffffffffffff167f8be0079c531659141344cd1fd0a4f28419497f9722a3daafe3b4186f6b6457e060405160405180910390a35050565b61069b846323b872dd60e01b85858560405160240161063993929190610fde565b604051602081830303815290604052907bffffffffffffffffffffffffffffffffffffffffffffffffffffffff19166020820180517bffffffffffffffffffffffffffffffffffffffffffffffffffffffff838183161783525050505061072f565b50505050565b6107228363a9059cbb60e01b84846040516024016106c0929190611015565b604051602081830303815290604052907bffffffffffffffffffffffffffffffffffffffffffffffffffffffff19166020820180517bffffffffffffffffffffffffffffffffffffffffffffffffffffffff838183161783525050505061072f565b505050565b600033905090565b6000610791826040518060400160405280602081526020017f5361666545524332303a206c6f772d6c6576656c2063616c6c206661696c65648152508573ffffffffffffffffffffffffffffffffffffffff166107f79092919063ffffffff16565b90506000815114806107b35750808060200190518101906107b29190611076565b5b6107f2576040517f08c379a00000000000000000000000000000000000000000000000000000000081526004016107e990611115565b60405180910390fd5b505050565b6060610806848460008561080f565b90509392505050565b606082471015610854576040517f08c379a000000000000000000000000000000000000000000000000000000000815260040161084b906111a7565b60405180910390fd5b6000808673ffffffffffffffffffffffffffffffffffffffff16858760405161087d9190611238565b60006040518083038185875af1925050503d80600081146108ba576040519150601f19603f3d011682016040523d82523d6000602084013e6108bf565b606091505b50915091506108d0878383876108dc565b92505050949350505050565b6060831561093e576000835103610936576108f685610951565b610935576040517f08c379a000000000000000000000000000000000000000000000000000000000815260040161092c9061129b565b60405180910390fd5b5b829050610949565b6109488383610974565b5b949350505050565b6000808273ffffffffffffffffffffffffffffffffffffffff163b119050919050565b6000825111156109875781518083602001fd5b806040517f08c379a00000000000000000000000000000000000000000000000000000000081526004016109bb9190611310565b60405180910390fd5b600073ffffffffffffffffffffffffffffffffffffffff82169050919050565b6000819050919050565b6000610a09610a046109ff846109c4565b6109e4565b6109c4565b9050919050565b6000610a1b826109ee565b9050919050565b6000610a2d82610a10565b9050919050565b610a3d81610a22565b82525050565b6000602082019050610a586000830184610a34565b92915050565b6000819050919050565b610a7181610a5e565b82525050565b6000602082019050610a8c6000830184610a68565b92915050565b600080fd5b610aa081610a5e565b8114610aab57600080fd5b50565b600081359050610abd81610a97565b92915050565b600060208284031215610ad957610ad8610a92565b5b6000610ae784828501610aae565b91505092915050565b6000610afb826109c4565b9050919050565b610b0b81610af0565b82525050565b6000602082019050610b266000830184610b02565b92915050565b610b3581610af0565b8114610b4057600080fd5b50565b600081359050610b5281610b2c565b92915050565b600060208284031215610b6e57610b6d610a92565b5b6000610b7c84828501610b43565b91505092915050565b600082825260208201905092915050565b7f416d6f756e74206d757374206265203e20300000000000000000000000000000600082015250565b6000610bcc601283610b85565b9150610bd782610b96565b602082019050919050565b60006020820190508181036000830152610bfb81610bbf565b9050919050565b600060ff82169050919050565b610c1881610c02565b8114610c2357600080fd5b50565b600081519050610c3581610c0f565b92915050565b600060208284031215610c5157610c50610a92565b5b6000610c5f84828501610c26565b91505092915050565b7f4e487b7100000000000000000000000000000000000000000000000000000000600052601160045260246000fd5b60008160011c9050919050565b6000808291508390505b6001851115610cee57808604811115610cca57610cc9610c68565b5b6001851615610cd95780820291505b8081029050610ce785610c97565b9450610cae565b94509492505050565b600082610d075760019050610dc3565b81610d155760009050610dc3565b8160018114610d2b5760028114610d3557610d64565b6001915050610dc3565b60ff841115610d4757610d46610c68565b5b8360020a915084821115610d5e57610d5d610c68565b5b50610dc3565b5060208310610133831016604e8410600b8410161715610d995782820a905083811115610d9457610d93610c68565b5b610dc3565b610da68484846001610ca4565b92509050818404811115610dbd57610dbc610c68565b5b81810290505b9392505050565b6000610dd582610a5e565b9150610de083610c02565b9250610e0d7fffffffffffffffffffffffffffffffffffffffffffffffffffffffffffffffff8484610cf7565b905092915050565b6000610e2082610a5e565b9150610e2b83610a5e565b9250828202610e3981610a5e565b91508282048414831517610e5057610e4f610c68565b5b5092915050565b7f4e487b7100000000000000000000000000000000000000000000000000000000600052601260045260246000fd5b6000610e9182610a5e565b9150610e9c83610a5e565b925082610eac57610eab610e57565b5b828204905092915050565b6000604082019050610ecc6000830185610a68565b610ed96020830184610a68565b9392505050565b7f4f776e61626c653a206e6577206f776e657220697320746865207a65726f206160008201527f6464726573730000000000000000000000000000000000000000000000000000602082015250565b6000610f3c602683610b85565b9150610f4782610ee0565b604082019050919050565b60006020820190508181036000830152610f6b81610f2f565b9050919050565b7f4f776e61626c653a2063616c6c6572206973206e6f7420746865206f776e6572600082015250565b6000610fa8602083610b85565b9150610fb382610f72565b602082019050919050565b60006020820190508181036000830152610fd781610f9b565b9050919050565b6000606082019050610ff36000830186610b02565b6110006020830185610b02565b61100d6040830184610a68565b949350505050565b600060408201905061102a6000830185610b02565b6110376020830184610a68565b9392505050565b60008115159050919050565b6110538161103e565b811461105e57600080fd5b50565b6000815190506110708161104a565b92915050565b60006020828403121561108c5761108b610a92565b5b600061109a84828501611061565b91505092915050565b7f5361666545524332303a204552433230206f7065726174696f6e20646964206e60008201527f6f74207375636365656400000000000000000000000000000000000000000000602082015250565b60006110ff602a83610b85565b915061110a826110a3565b604082019050919050565b6000602082019050818103600083015261112e816110f2565b9050919050565b7f416464726573733a20696e73756666696369656e742062616c616e636520666f60008201527f722063616c6c0000000000000000000000000000000000000000000000000000602082015250565b6000611191602683610b85565b915061119c82611135565b604082019050919050565b600060208201905081810360008301526111c081611184565b9050919050565b600081519050919050565b600081905092915050565b60005b838110156111fb5780820151818401526020810190506111e0565b60008484015250505050565b6000611212826111c7565b61121c81856111d2565b935061122c8185602086016111dd565b80840191505092915050565b60006112448284611207565b915081905092915050565b7f416464726573733a2063616c6c20746f206e6f6e2d636f6e7472616374000000600082015250565b6000611285601d83610b85565b91506112908261124f565b602082019050919050565b600060208201905081810360008301526112b481611278565b9050919050565b600081519050919050565b6000601f19601f8301169050919050565b60006112e2826112bb565b6112ec8185610b85565b93506112fc8185602086016111dd565b611305816112c6565b840191505092915050565b6000602082019050818103600083015261132a81846112d7565b90509291505056fea26469706673582212208373eda0c4f8ab56ead80db10c8bd261929ff9fb3887c842c35ad78917af5f6864736f6c634300081c0033",
  "linkReferences": {},
  "deployedLinkReferences": {}
}